:400000000080002011000000111200001112000008B5044B1A6803F53F5302331A6001F0FFF800BFFA46004010B5054C237833B9044B13B10448AFF300800123237010BD39
:40004000B082FF1F00000000F8270000084B10B51BB108490848AFF300800848036803B910BD074B002BFBD0BDE81040184700BF00000000B482FF1FF8270000C880FF1FF2
:400080000000000038B5134B988908B319461C89631C9BB2104AA2FB03525209642505FB12330B810138888101EB44018B7B13B1012B04D006E0002001F07EF902E001209A
:4000C00001F07AF9034B03EB4404E07B01F028F938BD00BFCC82FF1F1F85EB5130B5ABB01B4B9B89632B17D92AAD032305F8A83D184B1868CDF80100174C0FCCCDF81100C7
:40010000CDF81510CDF81920CDF81D30284600F011FC6FF0070019E00D4D6C89621C92B205EB4404A073E1730C49A1FB02014909642000FB11226A8101339BB2AB81012B8F
:4001400003D1FFF79FFF002000E000202BB030BDCC82FF1F542D0000582D00001F85EB512DE9F04180460E4617461D462A210020FFF7B4FF00210120FFF7B0FF194C94F8D0
:40018000D6104144C9B20120FFF7A8FF00210120FFF7A4FF94F8D6103944C9B20120FFF79DFF2B210020FFF799FF00210120FFF795FF94F8D7103144C9B20120FFF78EFFD6
:4001C00000210120FFF78AFF94F8D7102944C9B20120FFF783FF2C210020FFF77FFFBDE8F08100BFCC82FF1F08B5642800D9642001F014F908BD00BF10B50446362100207A
:40020000FFF76CFF04F003002A4B83F8D80003284ED8DFE800F00215283BC2210120FFF75DFF244BA022A3F8DA208022DA8093F8DC2083F8D62093F8DD2083F8D72010BD45
:40024000A2210120FFF74AFF1A4BA022DA808022A3F8DA2093F8DC2083F8D72093F8DD2083F8D62010BD08210120FFF737FF114BA022A3F8DA208022DA8093F8DC2083F8BD
:40028000D62093F8DD2083F8D72010BD62210120FFF724FF074BA022DA808022A3F8DA2093F8DC2083F8D72093F8DD2083F8D62010BD00BFCC82FF1F024BA3F8DE00A3F8D4
:4002C000E0107047CC82FF1F014BB3F8E4007047CC82FF1F2DE9F0411F46BDF818501F4BB3F90630834236DD90461C4AB2F8DA20914230DA00EB0804013C9C4202DB1B1A1F
:400300000FFA83F87B18013B9A4201DC571A3FB2C0B2C9B2CB19013B00EB0802013ADBB2D2B2FFF71DFF2E0AEDB2012001F044F80FE031460220FFF7D1FE29460220FFF7F6
:40034000CDFE013C24B200E04446002CF1DC013F3FB2002FF8DCBDE8F08100BFCC82FF1F00B583B0064AB2F9DA30B2F90620009000210846FFF7AEFF03B05DF804FB00BFA1
:40038000CC82FF1FF8B5364B8022DA80A022A3F8DA20002483F8D840A3F8DE40A3F8E04001251D714FF6FF72A3F8E220A3F8E4405D711C6083F8DD4083F8DC4083F8D64055
:4003C00083F8D7401C815C819C8100F0E7FF284600F0FEFF642001F0E7FF204600F0F8FF642001F0E1FF284600F0F2FF142001F0DBFF29462046FFF771FE322001F0D4FF08
:4004000011212046FFF76AFE782001F0CDFF0F22144D14E02C4614F8021B0020FFF75EFE6A78254606E06E1C29780120FFF756FE22463546531EDCB2002AF4D13A46531E53
:40044000DFB2002AE6D10220FFF7D6FE0020FFF787FF01F029F8642000F0E0FFF8BD00BFCC82FF1FFD27000008B5FFF72DFFFFF777FF08BD002821DB114BB3F906309842CD
:400480001CDA00291ADB0E4BB3F8DA30994215DA10B51446C0B2C9B24B1C421CDBB2D2B2FFF75EFE012000F087FF210A0220FFF715FEE1B20220FFF711FE10BD704700BF32
:4004C000CC82FF1FF8B51E46164BB3F90630834226DD1546134BB3F8DA30994220DA0A44013A934201DC5D1A2DB2C0B2C9B24B19013BDBB20246FFF733FE370AF6B201200D
:4005000000F05AFF08E039460220FFF7E7FD31460220FFF7E3FD25466A1E14B2002DF2D1F8BD00BFCC82FF1F2DE9F04F8BB00290039115460493BDF850709DF854A07F4BA7
:400540001A68002A40F09080B3F906300146834240F3F180794BB3F8DA300398984280F2EA800AEB4A0253000B44012B00F1E38000EBCA03012B00F1DE804FF00008894687
:4005800083460595049E4EE0059B03EB830343446B4A134493F8585000243EE015F0010F1BD0BAF1010F09D104EB0B0108EB0900324609B200B2FFF75DFF2BE01FFA8AF08B
:4005C0000FFA8AF204FB00B108FB00900096134609B200B2FFF77EFE1CE0BE421AD0BAF1010F09D104EB0B0108EB09003A4609B200B2FFF73FFF0DE01FFA8AF00FFA8AF2CD
:4006000004FB00B108FB00900097134609B200B2FFF760FE013464B26D08072CBEDD08F101084FFA88F8B8F1040FADDD049BBB4200F08180BAF1010F08D1029805303B46B6
:400640000822039900B2FFF73DFF74E01FFA8AF303EB8300029A10440097DB005246039900B2FFF737FE66E0137AEB1ADBB2506800EBC301D2F800B030F8337091F80280E6
:40068000CB78079391F90530089391F906200992BAF1010F04D91BB2059313B2069302E000230693059300231C46994640E05E1CF6B213F0070F03D17B1C1BF807409FB252
:4006C00014F0800F27D0BAF1010F0DD1099B039A99184944089B029A98182844049A09B200B2FFF7C7FE16E0059B58191FFA8AF3069A02EB09010FFA8AFE039A01FB0321B5
:40070000029A00FB0320049B00937246734609B200B2FFF7DFFD6400E4B20135EDB2334600E000254545C2D309F101095FFA89F9079A9145F5D30BB0BDE8F08FCC82FF1F48
:40074000FC27000070B582B04E4B1B68002B43D10A280BD14B4B0022A3F8DE201979B3F8E02002EBC102A3F8E02088E00D2800F08680444B5B79ABB1424A117901EB410424
:400780006300B2F8DE402344B2F90620934209DD3C4B0022A3F8DE20B3F8E02002EBC101A3F8E010374CB4F8E230B4F9E010B4F9DE5022790192B4F8E42000920246284615
:4007C000FFF7B2FE237903EB43035A00B4F8DE301344A4F8DE3052E00A280CD1294A0021A2F8DE10997A1079B2F8E03000FB0133A2F8E03043E00D2841D01A7A90423ED302
:40080000597A88423BD8821A5C6804EBC204A278E1785AB351B394F905501A494979A9B118490E792A44B1F8DE5002FB0652B1F906108A420ADD134A0021A2F8DE109B7AFE
:40084000B2F8E01006FB0316A2F8E0600D4AB2F8E230B2F9E010B2F9DE5016790196B2F8E420009202462846FFF75EFE2179054B1879B3F8DE2000FB0122A3F8DE2002B068
:4008800070BD00BFCC82FF1F10B5044602E00134FFF758FF20780028F9D110BD10B5044602E00134FFF74EFF20780028F9D10A20FFF748FF10BD00BF30B583B098B91B4864
:4008C000FFF7E2FF30E002AA5518194AA2FB0302D20802EB820460001B1A303305F8083C93B2013101E003460021002BEBD1002202AB0B4403F8082C0EE002AB981810F824
:40090000084C4B1E9B1A02AD2B4413F8085C00F8085C03F8084C013201EBD173B2EB630FEBDB6846FFF7BAFF03B030BD682D0000CDCCCCCC10B50446013000F025FE064871
:4009400000F022FE04F1110000F01EFE034800F01BFE002010BD00BF802D00006C2D000008B562B645F6BF52054B1A60054A136843F002031360002001F07AFBFBE700BF88
:4009800014E000E010E000E008B500F0CBFDFFF7F9FC6420FFF728FC0E4800F0A1F90E4800F02AFA00F0BAFA01F0BCFC0B4A136843F005031360022000F0F8FD032000F066
:4009C000F5FD042000F0F2FD012000F0EFFD01F095FB08BD7488FF1F0C84FF1F10E000E030B5A5B000232393012001F0B7F823A9022001F013F8239800F0E2FF239B13F01C
:400A0000010FF1D00DF10A0203A9144800F0B0F910BBBDF80A20FAB1114C042301930093022303A9204600F0F3F90546BDF80A200323019302230093012303A9204600F065
:400A4000E7F900B91DB1064800F054FA00E000BF024800F0BFF9C7E700BFC5E77488FF1F0C84FF1F10B5A2B000232193022001F075F821A9032000F0D1FF219800F0A0FFAE
:400A8000219B13F0020FF1D00DF1020301AA01210F4800F0FFF970B117E02001142100B2FFF70AFC22AB234413F8840CFFF704FF0134A4B200E00024BDF80230013B9C4222
:400AC000EBDB034800F016FAD0E700BFCEE700BF0C84FF1F10B5A2B000232193042001F03DF821A9042000F099FF219800F068FF219B13F0040FF1D00DF1020301AA02212B
:400B0000114800F0C7F9E8B9104800F03DFD00240FE022AB234413F8840C00F011FABDF80230023B9C4202DA094800F02DFD0134A4B2BDF80230013B9C42EADB054800F0D5
:400B400023FDCBE700BFC9E70C84FF1F842D0000882D00008C2D000000BFFDE708B5002000F0D6FE08BD00BF684620F007018D4619B572B6EFF311841E4B1B68DBB20F2BE6
:400B800010D9103B23F0030202F1604202F564421168DB0003F01803E0229A400A4022FA03F306E00F2B03D1134B1B681B0E00E0002383F31188114A136801331360012B64
:400BC00001D101F063FC62B6FFF7C8FF72B684F3118801F0DFF8094A1368013B13601BB901F05DFC01F021FC62B6BDE819408546704700BF04ED00E020ED00E08889FF1F11
:400C000000B583B001F0FEFB00F0A8FC02A901F8010D0C4800F06EF888B99DF8072032B9FFF722FC0121022000F018FF07E010F1080F03D1034800F0CDF800E000BF03B086
:400C40005DF804FB7488FF1F684620F007018D4619B572B6EFF311841E4B1B68DBB20F2B10D9103B23F0030202F1604202F564421168DB0003F01803E0229A400A4022FA2B
:400C800003F306E00F2B03D1134B1B681B0E00E0002383F31188114A136801331360012B01D101F0F3FB62B6FFF7AAFF72B684F3118801F06FF8094A1368013B13601BB93C
:400CC00001F0EDFB01F0B1FB62B6BDE819408546704700BF04ED00E020ED00E08889FF1F0023A0F80431A0F80231A0F800311846704700BFB0F804319BB2FF2B16D8B0F8F8
:400D000002319BB25A1C92B2A0F802210A78C254B0F80231DBB2A0F80231B0F804319BB201339BB2A0F80431002070476FF00700704700BFB0F804319BB2B3B1B0F8003161
:400D40009BB25A1C92B2A0F80021C35C0B70B0F80031DBB2A0F80031B0F804319BB2013B9BB2A0F80431002070476FF00800704770B582B005460E4614460023138001204E
:400D800001F014F819E00DF107012846FFF7D2FF2288531C23809DF80730B35423B9012001F006FA002012E023887F2B05D9012001F0FEF96FF0110009E0B5F804319BB2AF
:400DC000002BE0D1012001F0F3F96FF0100002B070BD00BF38B50446012000F0E7FFB4F802319BB2A4F800310025A4F80451012001F0DEF9284638BD0023A0F86634A0F896
:400E00006434A0F86234A0F860341846704700BF802A38D82DE9F041B0F86644072C35D8984617460E460446002000F0BFFFB4F864348C2505FB03453A463146284601F01F
:400E4000C7FCA5F8807085F88280069BC5F884309DF81C3085F88830B4F8643403F00703A4F86434B4F866340133A4F86634002001F09EF9D5F8841095F8880000F0EEFD5D
:400E80000020BDE8F0814FF0FF3070474FF0FF30BDE8F081F8B504460D4616461F46002000F084FF012D02D104F58C6501E004F26245B4F866342BB9002001F079F96FF040
:400EC0000800F8BD2B888C2101FB0341B1F880203A80304601F07CFC2B8803F007032B80B4F86634013BA4F86634002001F060F90020F8BD38B50446002000F057FFB4F818
:400F00006434A4F86034A4F862340025A4F86654284601F04DF9284638BD00BF08B50548FFF758FF0448FFF7E5FF044800F02CFB08BD00BF7488FF1F0C84FF1F902D00008C
:400F400070B582B0A0B91B4800F01EFB30E04D1C02AA1144184AA2FB0302D20802EB820460001B1A303301F8083C93B2E9B201E003460021002BEAD10E4602AA0A4402F8FC
:400F8000083C0FE002AAD01810F8084C721ED21A02AD2A4412F8085C00F8085C02F8084C0133DBB2B3EB510FECD3684600F0ECFA02B070BD682D0000CDCCCCCCFEE700BF12
:400FC000F0B40022174611E050F82760F3B226F0FF0608E001EB420511F812406D78A5550132013BDBB2002BF4D101371A2FEBD9F0BC7047064B1B78DBB203F00701054AAA
:4010000011701B09013213704422034B1A707047CF0100496E5800407658004008B50A46002101F0E0FB08BD38B50024284B1C80582202331A70192502331D801823254A61
:40104000137041F2BF2102321180023213700222214B1A7008224FF040231A70032103F5007319701D4B1B78DBB21D490B701D4B1A8041F25122023B1A800CE01A4B1B780A
:4010800003F0010343EA440404F003044FF4F07001F082FA013D0DB1032CEFD115B90320FFF78CFF114B4FF480721A8007221A7000220F490A704820023108701A700222C9
:4010C000033B1A700B4A137843F00703137038BD80400040864000400043004008010049A146004022420040254200400440004006400040A243004008B501F069FB08BD40
:4011000038B572B6334A137843F00403137000240CE0314D630019194A0011462A44084691882858FFF77AFF0134E4B20C2CF0D900240CE02848A20011194B000344B3F8F8
:401140005820596D186DFFF7D7FF0134E4B2032CF0D922494FF09040FFF732FF204A137843F0020313701032137843F0020313701C4C237843F040032370A2F58632513A5E
:40118000137843F0100313700A2217491748FFF7B3FF082216491748FFF7AEFF082216491648FFF7A9FF164A137843F008031370144D61232B70FFF737FF81232B7001227E
:4011C000114B1A70FFF716FF0E2221460F48FFF793FF38BDE8460040AC2D00006C00004803500140A043004054050048C05100406005004812510040680500483251004027
:40120000224300400048004004000840B043004008B501F0B1FA03680C2B00D1FEE7FEE708B5104E104D16E029686B68AC68002204E051F8040B43F8040B0432A242F8D1FB
:40124000E868002203E0002143F8041B04328242F9D11035013E002EE6D101F093FAFFF77FFBFEE701000000C030000008B5104A104B1A60104A136843F4007313600023AC
:401280000AE0032B03D80D4A52F8231000E00C490C4A42F8231001332F2BF2D90A4B1A780A4B1A70074A0A4B1A60FFF729FF08BD0004FA050CED00E014ED00E00000000090
:4012C000111200000080FF1FBC760040C080FF1F08ED00E008B501F067F90A4A137843F0200313700332137843F010031370013A137843F01003137001F05AF901F036F847
:4013000008BD00BF98640040014B1878704700BF6B640040014B1878704700BF6A640040034B1B7813F0040FFAD0024B187070476B6400404864004008B501E00A4B1B785E
:401340000A4B1B7813F0200FF8D101F02DF9084B1A7842F001021A701A7802F0FE021A7001F026F908BD00BF586400406A6400409864004008B50F22064B1A70FFF7DCFF4D
:40138000FFF7C2FFFFF7C6FF0023034A1370013A137008BD886400408B64004008B5054B1B7823B9FFF7E6FF0122024B1A70FFF791FF08BDB283FF1F044A137803F0F70335
:4013C000C00000F00800184310707047C0510040044A137803F0EF03000100F0100018431070704730510040084A137843F0010313701032137843F00103137002F64D32AB
:40140000137843F001031370704700BFA3430040014B1880704700BF044F0040014B1880704700BF064F0040014B1870704700BF034F004008B5194A137843F002031370AD
:401440000232137803F08F0343F010031370144B1A7802F0CF021A701A7842F030021A701A7802F0F0021A701A7842F00F021A706420FFF7CDFF0020FFF7D0FF0020FFF701
:40148000D3FF084A137843F00103137002F65E32137843F00103137008BD00BF004F00400B4F0040A343004008B5054B1B7823B9FFF7C0FF0122024B1A70FFF795FF08BDA9
:4014C000B383FF1F7222084B1A702022023B1A700622A3F5AF731A70472210331A70002203F24F131A7070478A65004010B501F05BF804460A4A137843F020031370023A4C
:40150000137843F0100313700132137843F01003137000F039FF204601F04AF810BD00BF9A65004008B5054B1B7823B9FFF7CAFF0122024B1A70FFF7D9FF08BDB483FF1F27
:40154000014B1878704700BF4A650040024B187800F07F00704700BF6865004010B5FFF7F5FF0402FFF7ECFF204380B210BD00BF034B1B7813F0040FFAD1024B1870704756
:40158000696500404965004038B5074B1B782BB938BDFFF7EDFF0134A4B201E005460024285D0028F5D138BDB483FF1F38B5EFF3108572B604284ED82D4B53F82030002BEE
:4015C0004BD02B4A013B42F820302A4B53F82030032B07D10222274B43F820200022264B43F8202000F0C6FC244B1B68002B36D1234B1C6800F09CFCB0F1FF3F31D0214BC4
:4016000053F82020204B1B689A422CD9B4F1FF3F03D00221174A42F824101C4A52F820201343194A13600022124B43F8202000F03BFC174B53F820304BB10024144B43F8B4
:40164000204040F0004000F033FF20460CE000F02FFF002008E0032006E0042004E0002002E0002000E0002085F3108838BD00BF3881FF1FE481FF1FE883FF1F8889FF1FF7
:40168000CC81FF1FCC2F00000484FF1FA42F0000C083FF1F18B108B5C368984708BD704708B508B1406800E00020042816D80C4B53F8203093B10A4A013B42F82030094B02
:4016C00053F82030032B07D10222064B43F820200022054B43F8202000F04CFC08BD00BF3881FF1FE481FF1FE883FF1F18B1034640689B6801E00023184604281DD80F4A34
:4017000052F82020CAB10E4A52F82010032914D010B50C4C54F820201A4344F820200A4A52F82020134207D0012905D10222044B43F8202000F01EFC10BD70477C2F00000F
:40174000E481FF1FE883FF1FD483FF1F80B108B50378012B06D013B1032B06D008BDFFF79FFF08BDFFF7C2FF08BDFFF793FF08BD704700BF30B400EB40029300214AD2581F
:40178000214B03EBC2035C68B4F1FF3F04D11E4B03EBC20250602DE01C4B03EB04139B6899420AD2184D05EBC2025060174A02EB04125B1A93601DE01C46144B03EB041338
:4017C0009A68891ADB68B3F1FF3F05D00F4A02EB031292689142EFD2B3F1FF3F05D00B4A02EB031295686D1A9560084A02EB0414E0601C46054B03EB00108160C46030BCA2
:40180000704700BF442F0000D480FF1F8891FF1F38B5394A02EBC0035C6852F83030013342F8303000EB40018A0034498A58934203D90022304B43F83020B4F1FF3F59D0C0
:401840002F4B03EB04139B68002B4ED1214600E019462B4B03EB0113DB68B3F1FF3F05D0274A02EB03129268002AF1D0244A02EB01114FF0FF32CA601F4A02EBC00043606C
:40188000B3F1FF3F07D01E4A02EB03139A68013A9A6000E02C4604EB44029300194A13441B7A7BB904EB44029300164A13445A68154B53F8223003EB83039A001348104435
:4018C000FFF744FF0E4B03EB0413DD68596821B101392046FFF74EFF03E024010022084B1A51B5F1FF3FD5D138BD054A02EB0414013BA36038BD00BFD480FF1F582F0000EF
:401900008891FF1F442F0000542F0000302F000038B5EFF3108572B6002838D1FFF778FF204B1B68002B34D11F4B1C6800F000FBB0F1FF3F2FD01D4B53F820201C4B1B683F
:401940009A422AD9B4F1FF3F03D00221194A42F82410194A52F820201343154A13600022144B43F8202000F09FFA144B53F820304BB10024114B43F8204040F0004000F0D3
:4019800097FD20460AE000F093FD002006E0032004E0002002E0002000E0002085F3108838BD00BF8889FF1FCC81FF1FCC2F00000484FF1FE481FF1FA42F0000C083FF1FDE
:4019C000EFF3108372B6114A1168114A126882B9B1F1FF3F0FD00F4A52F821206AB110B40D4C54F8212022EA000044F82100002007E0022002E0022000E0012083F3108859
:401A0000704783F3108810BC704700BFCC81FF1F8889FF1F7C2F0000E883FF1F04280FD80B4B53F820306BB10A4B53F82030032B0AD059B1084B53F820300B60002070477F
:401A40000320704701207047072070470E2070477C2F0000E481FF1FE883FF1F38B5EFF3108472B6042853D8324B53F82030002B50D0314B53F82030032B4DD02F4D55F8CA
:401A800020200A4345F820202D4A52F82020114244D0012B44D10222274B43F8202000F069FA284B1B68002B3CD1274B1D6800F03FFAB0F1FF3F37D0244B53F82020244B72
:401AC0001B689A4232D9B5F1FF3F03D002211A4A42F825101F4A52F8202013431C4A13600022154B43F8202000F0DEF91A4B53F820304BB10025184B43F8205040F000404A
:401B000000F0D6FC284612E000F0D2FC00200EE003200CE001200AE0072008E0002006E0002004E0002002E0002000E0002084F3108838BD7C2F0000E481FF1FE883FF1FA7
:401B4000D483FF1F8889FF1FCC81FF1FCC2F00000484FF1FA42F0000C083FF1F38B5EFF3108472B63A4B1D683A4B1B68002B63D1B5F1FF3F62D0384B53F82530B3F1FF3F6A
:401B80005ED1364B53F82530002B5BD0344B53F82530034258D1334B43F825000122324B43F82520314B53F8250031490B6823EA00030B602F4B43F825202F4B53F825209C
:401BC000234B1A6000F0B4F9B0F1FF3F06D02B4B53F82020264B1B689A420DD81C4B1868B0F1FF3F03D000221F4B43F8202040F0004000F05DFC1AE000211B4A42F82010B2
:401C00001A4A52F820201343194A136000F04CF9184B53F8203043B10022164B43F8202040F0004000F044FC01E000F041FC00200C4B43F8250008E0022006E0022004E0EA
:401C4000062002E0012000E0002084F3108838BDCC81FF1F8889FF1FE480FF1F7C2F0000E883FF1FD483FF1FE481FF1FA42F00000484FF1FC083FF1FD081FF1FCC2F0000AB
:401C800008B500F011F9084B53F8203043B10022054B43F8202040F00040044B186008BD024B186008BD00BFC083FF1F8C89FF1F08B50A4B1868B0F1FF3F0DD0084B1A68A2
:401CC000084B53F820309A4206D1053000F03EFA024A1368013B136008BD00BFCC80FF1F8889FF1F7499FF1F0D4B1A680D4B1B68B3F1FF3F05D100210A4B19600A4B1A60FD
:401D00000AE0094951F823108A4205D9013305490B60054941F82320024B1868053070478889FF1FCC80FF1F7499FF1F10B500F0FFF8124B1B68B0F1FF3F1AD0104A52F814
:401D40002010104A1268914213D9B3F1FF3F03D002240D4941F8234000210B4B43F820100A4B53F820301A43064B1A60FFF788FF10BD43F00043064A136010BDCC81FF1F1E
:401D8000CC2F00000484FF1FE481FF1FA42F00008C89FF1F08B5044B1B6813B10022024B1A60FFF785FF08BD7C89FF1F38B5334B1A68334B1B68EFF3108572B6012851D87C
:401DC000304951F8201000294ED153B9B2F1FF3F4CD02D4951F822402C4951F820108C4246D893B12A4951F82040EFF3118121B1A14204D32CB1002104E0002102E001213E
:401E000000E0012111F0FF0F34D1EFF31181214C44F820101E4951F82010EFF3118409B18C4200D80CB981F31188044613B1FFF75BFF0246184B53F82200184941F8240082
:401E400043F8224001220F4B43F82420144A1168144B43F824100D4B53F824300B431360002008E0032006E0012004E0012002E0012000E0012085F3108838BDCC81FF1FC1
:401E80008889FF1FB883FF1FCC2F0000742F00006C2F000048A1FF1FE480FF1FDC80FF1F0484FF1F9891FF1FF0B4184B19880B0A174AD356B3F1FF3F01D1535601E00833B1
:401EC0005BB2144D55F82320134850F82200134E56F8224045F82340114D2F6846F822702A60B4F1FF3F09D10E4A42F82340012202FA03F321EA0301044B19800A4B19688B
:401F00000A4A42F820101860F0BC70470084FF1F242E00008C81FF1F6091FF1F1081FF1FFC83FF1F4C81FF1FCC81FF1FD081FF1F0C4B1A88130A0C49CB56B3F1FF3F01D189
:401F40008B5601E008335BB2B3F1FF3F06D0074A52F82320064B53F8220070474FF0FF30704700BF0084FF1F242E00008C81FF1F6091FF1F30B4144B53F82020134C236882
:401F8000134951F823502560124C44F823004FF0FF3441F82340104951F82210A1420AD10E4951F820400E480188214301800D4941F8223002E0064840F82130064941F841
:401FC000223030BC704700BF2481FF1FFC83FF1F1081FF1F6091FF1F4C81FF1FCC2F00000084FF1F8C81FF1F10B150F8210070474FF0FF30704700BF0122014B1A60FEE7C9
:402000008489FF1F70B50546124B53F8306000241CE0104B03EBC50321465868FFF7E4FF0D4A52F82030013B42F820300B4B53F82030032B07D10222084B43F820200022DA
:40204000074B43F82020FFF795FF0134B442E0D370BD00BF242F00003881FF1FE481FF1FE883FF1F18B908B5FFF7CCFF08BD7047194B1A4ADA621A4A9A631A4ADA63EFF356
:40208000108272B6184B1B6813BB10B5044600F049F9164B1C600122134B1A602046FFF7E1FFFFF745FFB0F1FF3F0ED0104B53F82030104A11680B43136000220E4B43F826
:4020C0002020FFF7F1FE00F0F3F962B6FFF794FF82F31088072070470080FF1F7124000035240000690B00008489FF1F7099FF1FA42F00000484FF1FE481FF1F08B5EFF366
:40210000108272B60D4B19680D4B1B6863B90D4B53F82130B3F1FF3F08D14FF0FF300A4B43F82100002002E0022000E0062010B9084600F016FA82F3108808BDCC81FF1FC9
:402140008889FF1FE480FF1FFC80FF1F10B4124B53F820304FF0FF310BE0104A52F823200D4941F8202000240D4941F8234019461346B3F1FF3FF0D1B1F1FF3F09D0094BCA
:4021800053F82120084B1A60084B53F8213083F31188084610BC7047E480FF1FDC80FF1FB883FF1F9891FF1F0484FF1F48A1FF1F70B54D4B1B684D4A1268EFF3108572B6BE
:4021C00042B14B4B1B68B3F1FF3F01D0053301E04FF0FF33012872D8464951F8201000296FD0454951F8231088426CD152B9B3F1FF3F6AD0414C54F82360414C54F82040E6
:40220000A64264D892B13F4C54F82060EFF3118424B1A64204D82EB1002404E0002402E0012400E0012414F0FF0F52D1364C54F8204084F31188354C54F821402E4941F868
:40224000234000212B4B43F82010314B53F82010304B1960002A3ED1234B1C68FFF768FEB0F1FF3F39D0254B53F82030294A1268934234D9B4F1FF3F03D00221264B43F840
:402280002410264B53F820301343224A13600022214B43F82020FFF707FE214B53F820304BB100241E4B43F8204040F0004000F0FFF8204614E000F0FBF8002010E00320B3
:4022C0000EE005200CE005200AE0012008E0012006E0012004E0002002E0002000E0002085F3108870BD00BFCC81FF1F8889FF1FCC80FF1FB883FF1FE480FF1FCC2F0000C3
:40230000742F00006C2F000048A1FF1FDC80FF1F9891FF1F0484FF1FE481FF1FA42F0000C083FF1F38B50D4B1D68EFF3108472B600F06EF80A4A136843F07F431360094BF1
:402340002B640721002000F045F8074A136843F00103136084F3108838BD00BF08ED00E020ED00E0490C000000E100E0054A137843F0010313701032137843F0010313702D
:40238000704700BFA2430040054A137843F0020313701032137843F002031370704700BFA243004001BE704710B5044605E0084B186800F0F1F8A4F50044B4F5004FF6D811
:4023C000034B586800FB04F000F0E6F810BD00BF3482FF1F38B504460D46072902D90020FFF7E0FF1F2C02D90020FFF7DBFF04F01F0000F1604000F564406D01EDB2057053
:4024000038BD00BF0122014B1A60704780E200E018484FF47F0102680A43026016486FF07F4102680A400260704714484FF080510160704772B611484FF000610160FFF784
:4024400075FC0F48006800F0D7F858B10C4800684FF080730B4A0C490FB40FB46FF00600004700BF6FF0060062B6004762B600DF08B0704720ED00E01CED00E004ED00E00A
:402480008C89FF1FB12400006D240000EFF30880054908600548006880F3088870470248006880F3088870474482FF1F2082FF1F411C8900154A11440968154A1368994224
:4024C0001AD0F0B444464D4656465F46F0B400B5104C9B002344EFF308851D60116089002144096881F3088802BC8E46F0BCA046A946B246BB46F0BC002806DB00B500F013
:402500006FF802BC8E46FFF7D3BF7047083000000884FF1F2482FF1FF0B444464D4656465F46F0B400B5EFF3038308B48000174901440968164A0244EFF308831360884753
:402540001448804704BC4FF08070024382F3038801BC8646F0BCA046A946B246BB46F0BC704780000A4901440A6882F3088804BC4FF08070024382F3038808BC9E46F0BC87
:40258000A046A946B246BB46F0BC7047E02F00007491FF1FB92500000230800803D000BF01380046FCD17047EFF3108072B6704780F31088704700BF10B572B6034B1C68FA
:4025C0002046FFF7C3FD2046FFF7CBFFCC81FF1F08B5024B1868FFF79FFF08BDCC81FF1F08B562B6FFF7F4FF72B600F041F8014B186808BD8C89FF1F00280BDA20F00040B0
:402600000130054B53F82000044B1B68181A18BF0120704701207047083000000884FF1F054B53F82020054B53F820309A4201D101207047002070473881FF1F902F000088
:4026400008B5FFF731FC084B53F8203043B10022054B43F8202040F00040044B186008BD024B186008BD00BFC083FF1F8C89FF1F38B5364B1C680022354B1A60354A52F8FB
:402680002430013342F82430334B53F824502046FFF7C6FF012801D0A54204D103222F4B43F8242003E002222C4B43F824202C4B53F824102B4A136823EA010313602A4BF6
:4026C00053F82440214B1C60B5F1FF3F0FD0234B53F82530032B07D10222204B43F825200022224B43F825202846FFF743FCFFF71FFCB0F1FF3F0BD1B4F1FF3F03D0002207
:40270000164B43F8242044F00044194B1C6038BD184B53F82020134B1B689A4208D800220E4B43F8242044F00044114B1C6038BD00210A4A42F82010094A52F82020134390
:40274000084A1360FFF77CFF38BD00BFCC81FF1F7C89FF1F3881FF1FFC80FF1FE481FF1FA42F00000484FF1FD081FF1FE883FF1F8C89FF1FCC2F0000014B1868704700BF0C
:40278000A882FF1F0E4B70B51E460E4C0025E41AA410A54204D056F8253098470135F8E700F07CFC084B094C1E46E41AA4100025A54204D056F8253098470135F8E770BDA2
:4027C000A8300000A8300000A8300000B030000010B5431E0A44914204D011F8014B03F8014FF8E710BD03460244934202D003F8011BFAE770470000000000000FB103055D
:402800003C3CB203053C3CB306053C3C053C3CB40103C003280804C101C0C2020D00C3028D2AC4028DEEC5011A3601C0E0100422070A2E30252A28262E3A00010313E10F14
:4028400016060D2D26232727252D3B000104133A0105290000000000003E5B4F5B3E3E6B4F6B3E1C3E7C3E1C183C7E3C181C577D571C1C5E7F5E1C00183C1800FFE7C3E713
:40288000FF0018241800FFE7DBE7FF30483A060E2629792926407F050507407F05253F5A3CE73C5A7F3E1C1C08081C1C3E7F14227F22145F5F005F5F06097F017F006689D8
:4028C000956A606060606094A2FFA29408047E040810207E201008082A1C08081C2A08081E101010100C1E0C1E0C30383E3830060E3E0E06000000000000005F00000007C6
:40290000000700147F147F14242A7F2A12231308646236495620500008070300001C2241000041221C002A1C7F1C2A08083E08080080703000080808080800006060002063
:40294000100804023E5149453E00427F400072494949462141494D331814127F1027454545393C4A49493141211109073649494936464949291E0000140000004034000069
:4029800000081422411414141414004122140802015909063E415D594E7C1211127C7F494949363E414141227F4141413E7F494949417F090909013E414151737F08080816
:4029C0007F00417F41002040413F017F081422417F404040407F021C027F7F0408107F3E4141413E7F090909063E4151215E7F09192946264949493203017F01033F40400A
:402A0000403F1F2040201F3F4038403F631408146303047804036159494D43007F4141410204081020004141417F04020102044040404040000307080020545478407F28CC
:402A40004444383844444428384444287F385454541800087E090218A4A49C787F0804047800447D40002040403D007F1028440000417F40007C047804787C080404783822
:402A800044444438FC1824241818242418FC7C08040408485454542404043F44243C4040207C1C2040201C3C4030403C44281028444C9090907C4464544C440008364100DC
:402AC0000000770000004136080002010204023C2623263C1EA1A161123A4040207A385454555921555579412254547842215554784020545579400C1E52721239555555F4
:402B000059395454545939555454580000457C410002457D420001457C407D1211127DF0282528F07C545545002054547C547C0A097F4932494949323A4444443A324A48F6
:402B400048303A4141217A3A42402078009DA0A07D3D4242423D3D4040403D3C24FF2424487E4943662B2FFC2F2BFF0929F620C0887E090320545479410000447D4130483A
:402B8000484A32384040227A007A0A0A727D0D19317D2629292F28262929292630484D4020380808080808080808382F10C8ACBA2F102834FA00007B000008142A14222226
:402BC000142A14085500550055AA55AA55AAFF55FF55FF000000FF00101010FF00141414FF001010FF00FF1010F010F0141414FC001414F700FF0000FF00FF1414F404FC26
:402C0000141417101F10101F101F1414141F00101010F0000000001F101010101F10101010F010000000FF101010101010101010FF10000000FF140000FF00FF00001F10A1
:402C4000170000FC04F414141710171414F404F40000FF00F714141414141414F700F7141414171410101F101F141414F4141010F010F000001F101F0000001F14000000B5
:402C8000FC140000F010F01010FF10FF141414FF141010101F00000000F010FFFFFFFFFFF0F0F0F0F0FFFFFF0000000000FFFF0F0F0F0F0F3844443844FC4A4A4A347E028D
:402CC000020606027E027E0263554941633844443C04407E201E2006027E020299A5E7A5991C2A492A1C4C7201724C304A4D4D303048784830BC625A463D3E494949007E86
:402D00000101017E2A2A2A2A2A44445F444440514A444040444A51400000FF0103E080FF000008086B6B083612362436060F090F06000018180000001010003040FF0101F7
:402D4000001F01011E00191D1712003C3C3C3C000000000054465400427566666572206F766572666C6F7700300000000A000000554152542073746172746564000000005C
:402D8000203A20000D0A00002C2000002E0A0D000D0A416C6C204275666665727320666C7573686564210D0A00000000004F00400C00005100401000205100401000405103
:402DC00000403000F05100401000000001400008800801408007001401408004001901400001801A0140800100400140000A004C01400002005001402000000060520040EC
:402E0000CC030048060000080140D4030048800080180140540400488000001A0140D40400488000FF00010102020202030303030303030304040404040404040404040448
:402E400004040404050505050505050505050505050505050505050505050505050505050505050506060606060606060606060606060606060606060606060606060606FA
:402E80000606060606060606060606060606060606060606060606060606060606060606060606060707070707070707070707070707070707070707070707070707070776
:402EC0000707070707070707070707070707070707070707070707070707070707070707070707070707070707070707070707070707070707070707070707070707070712
:402F0000070707070707070707070707070707070707070707070707070707070707070707070707010000002C2F0000000000000100000002000000010000000000000035
:402F4000FFFFFFFF0000000000000000000000000000000000000000A086010001000000000000000000000000400000000000002900000010000000004000000000000074
:402F80000000000001000000010000000100000001000000010000000100000001000000010000008000000001000000100000000800000008000000010000000200000065
:402FC000040000000000000001000000010000000100000010000000080000000800000089090000590B0000E1090000650A0000D50A0000D1250000D1250000D12500009A
:40300000D1250000D1250000000000000000000000000000010000000200000003000000616C726D5F35306D7300000065765F73656E64657200000065765F74667400000B
:4030400065765F75617274007265735F64796E007265735F73747265616D000074736B5F696E69740000000074736B5F6261636B67726F756E64000074736B5F73656E64A0
:403080006572000074736B5F7466740074736B5F756172740000000043000000F8B500BFF8BC08BC9E4670474D0000006D120000F8B500BFF8BC08BC9E4670472900000097
:4030C000D0300000C880FF1FE8010000A020000000000000FFFFFFFF2030000000000000FFFFFFFFFFFFFFFFFFFFFFFFFFFFFFFFFFFFFFFFFFFFFFFFFFFFFFFFFFFFFFFF95
:40310000FFFFFFFFFFFFFFFFFFFFFFFFFFFFFFFFFFFFFFFFFFFFFFFF01000000020000000300000004000000FFFFFFFF000000000000000004000000030000000300000097
:403140000100000001000000010000000100000001000000FFFFFFFFFFFFFFFFFFFFFFFFFFFFFFFFFFFFFFFFFFFFFFFFFFFFFFFFFFFFFFFFFFFFFFFFFFFFFFFFFFFFFFFF76
:40318000FFFFFFFFFFFFFFFFFFFFFFFFFFFFFFFFFFFFFFFFFFFFFFFFFFFFFFFFFFFFFFFFFFFFFFFFFFFFFFFFFFFFFFFFFFFFFFFFFFFFFFFFFFFFFFFFFFFFFFFFFFFFFFFF4F
:4031C000FFFFFFFFFFFFFFFFFFFFFFFFFFFFFFFFFFFFFFFFFFFFFFFFFFFFFFFFFFFFFFFFFFFFFFFFFFFFFFFFFFFFFFFF0300000003000000030000000300000003000000EC
:403200002C300000383000004030000048300000503000005C3000006830000078300000843000008C30000050A3FF1F000000003891FF1F20A1FF1F4899FF1F0000E02E42
:40324000C05D00001800000000366E0100000000000000000000000000000000000000000000000000000000000000000000000098300000000000000000000000000000AC
:403280000000000000000000000000000000000000000000000000000000000000000000000000000000000000000000000000004882FF1F00000000000000000000000026
:4032C00000000000000000000000000000000000000000000000000000000000000000000000000000000000000000000000000000000000000000000000000000000000CE
:40330000000000000000000000000000000000000000000000000000000000000000000000000000000000000000000000000000000000000000000000000000000000008D
:40334000000000000000000000000000000000000000000000000000000000000000000000000000000000000000000000000000000000000000000000000000000000004D
:40338000000000000000000000000000000000000000000000000000000000000000000000000000000000000000000000000000000000000000000000000000000000000D
:020000040003F7
:0200000480007A
:40000000024F004001640040036500400404014001050140010701400A0801403C0901405C0A0140370B01400117014010180140431901400B1A0140471B0140024001401B
:4000400001410140054201400543014002440140014501400146014002470140034801400A4D0140045001400151014001200A4B880F8838890F8A72B880BE40D804DF012D
:400080001F80AF808A028E029801B201B602BA02BE44D804DC01DF0100A00406051006020B080E280F021755184019841C141D801E82240A2554261427282E012F28351011
:4000C000360437013DA03E0645A44C044F065680573467016C106E056F5D7602912092029321942896019704981099109C029D209E839F2DA128A504A641A794B180C0F3EB
:40010000C2E2C4F0CAE0CCE0CEF0D070D220D810041008200A030B080C140F0C10091210141C152C1602174319801B131C0C1E112171230E281029712A0C2B0631C0321F28
:40014000330F3530362039223B083E403F104002464049FF4A074BFF4C404D204EF04F0550085440580459045A045B045C115D015F01604061A862406320828084628533E6
:40018000861487C4888D890E8D208FD09002920D9440955597AA98429A089C8DA00DA280A48DA594A769A811AA22AC8DB00FB280B470B50FB7F0B920BA22BB80BE04D409B7
:4001C000D804D904DB04DF0102110308042806C0084009080B400D200E510F201004128013011602172519801B081D341E401F1020042108220123402550268028442920CD
:400200002B802F1030303108370839203B403DA840044820511052105E925F046104624063086402C077C2FDC4F2CA45CC46CE7CD004D6F0D81EE60802030A0514061601CF
:400240001A011E062A0236073A805418560458045B045C015D105F01011003E205200740083009080A020B810C100D080F0110A01208152019601A401B221F802101221EDD
:40028000230229102B123020324433013840391A40204380492050805201530C580259445B105F026580662286028C408E0490449120920293209708981099849B089D202A
:4002C0009E01A10CA450A780B412C05FC2EFC44ECA0ECC0FCE0FD00AD204D68FD8B08304850297039F01A703AB04B103B304BF04D904DF01004A062007200A580B0210829E
:400300001314184119141A8020802108231127A029242A022F1831183242378838283B803D083F0140414110481549204A064F3053085A20682069106B017094721273042E
:400340008004811083018780884289148B409004926893209518968097809B089D109E209F01A104A206A470A710A882AB18C00DC20FC40FCA67CC5FCECED00DD20CD604DF
:40038000E0063380CC10A78053086302A780D420D6401B08A788AF01C610EE107B02DC01A702A702B302EC018780A780E610108070027720800287208880C408DC01DE0413
:4003C000E60100030C0310031C0300031034000040000000049A000001980002562109D8843800C0009800020A13106407FC380360000000049A80008002040084020098B3
:4004000084000000080002137F0F80E0200000A0000045006203100000BECD0F1FFFFFFF2200F008040000000000022004040404000000010000C00040011011C0010011B8
:4004400040014001000000000000000000000000000000001300040313090C10E03800002007C000402020000A121408003815000007080003001400E004000380042003F0
:4004800000030000E02000180F04100300002000000040106301000000000CBE34FFFFFF0000F0440C000000010000000404040411110001000000000000C00000004002B6
:4004C0000000000000000000000000000000000000000000000043004F1800000008000043040C00030010230C3C0042021C20610F67401808100000040000040C7F4300DC
:400500000100A0000F38801F4C003040008022080000400045060200010C000E11FFFFFF62A0F0410C00000000000211040404041111000100000000000040020010301001
:400540000010101200000000000000000000000000000000800040BCBC00B40000000000000B0B00000000000018180008000000000000000000000000000000000000000F
:40058000000000000000000000000000000000000000000000000000000000000000000000000000000000000000000000000000000000000000000000000000000000003B
:4005C00000000000000000000000000000000000000000000000000000000000000000000000000000000000000000000000000000000000000000000000000000000000FB
:4006000000000000000000000000000000000000000000000000000000000000000000000000000000000000000000000000000000000000000000000000000000000000BA
:40064000000000000000000000000000000000000000000000000000000000000000000000000000000000000000000000000000000000000000000000000000000000007A
:0200000490006A
:0400000000004005B7
:0200000490105A
:04000000BC90ACAF55
:0200000490303A
:02000000FBBE45
:0200000490402A
:4000000000000000000000000000000000000000000000000000000000000000000000000000000000000000000000000000000000000000000000000000000000000000C0
:400040000000000000000000000000000000000000000000000000000000000000000000000000000000000000000000000000000000000000000000000000000000000080
:400080000000000000000000000000000000000000000000000000000000000000000000000000000000000000000000000000000000000000000000000000000000000040
:4000C0000000000000000000000000000000000000000000000000000000000000000000000000000000000000000000000000000000000000000000000000000000000000
:0200000490501A
:0C00000000012E16106900012E2A0C27AA
:00000001FF